:100000000C942A000C9447000C9447000C94470071
:100010000C9447000C9447000C9447000C94470044
:100020000C9447000C9447000C9447000C94470034
:100030000C9447000C9447000C9447000C94470024
:100040000C9447000C9447000C9447000C94470014
:100050000C94470011241FBECFE5D8E0DEBFCDBF12
:1000600010E0A0E6B0E0E8E8F6E002C005900D92EE
:10007000AA36B107D9F720E0AAE6B0E001C01D9288
:10008000A137B207E1F70E943C010C9442030C94A3
:10009000000040916500509166006091670070918A
:1000A0006800809169000E94E100409160005091D9
:1000B00061006091620070916300809164000E9411
:1000C000E10060E082E00E949F0061E082E00E9427
:1000D0009F0062E082E00E949F0063E082E00E9455
:1000E0009F000895CF93C82F282F4091650050910D
:1000F00066006091670070916800809169000E94BD
:1001000016012C2F409160005091610060916200B7
:1001100070916300809164000E941601CF91089550
:1001200040E060E082E00E94D000813039F48091AC
:100130006A00865F80936A000E94720008956830AA
:1001400018F440E00E9441010895413019F40E94E2
:100150002B0206C00E942B0291E0811190E0892FB2
:100160009091700089130AC020916E0030916F0049
:100170002F5F3F4F30936F0020936E0020916E00F1
:1001800030916F00293C310530F010926F001092D1
:100190006E0080936D008093700080916D000895D3
:1001A0000E94A50090916C00891719F080936B0054
:1001B00003C092E090936B0080936C0080916B0081
:1001C00008951F93CF93DF9300D000D01F92CDB737
:1001D000DEB749835A836B837C83182F811106C055
:1001E00040E050E060E080E00E945902113031F4BC
:1001F00040E050E060E081E00E9459026A8168308E
:1002000060F41C81183048F441E089810E9441016A
:1002100041E0612F8B810E9441010F900F900F9060
:100220000F900F90DF91CF911F9108951F93CF935F
:10023000DF9300D000D01F92CDB7DEB7942F6B8331
:100240007C838D83122F40E0652F892F0E94B60199
:1002500041E06C818B810E94B601153620F4612F3C
:100260008D810E9409030F900F900F900F900F90B7
:10027000DF91CF911F9108950E9449000E94900044
:10028000FDCF813011F130F08230D1F1833009F4AB
:1002900052C00895413059F42AB381E090E002C081
:1002A000880F991F6A95E2F7822B8ABB0895411146
:1002B0005CC02AB381E090E002C0880F991F6A9564
:1002C000E2F7809582238ABB0895413059F427B321
:1002D00081E090E002C0880F991F6A95E2F7822BB7
:1002E00087BB0895411141C027B381E090E002C06F
:1002F000880F991F6A95E2F78095822387BB08953E
:10030000413059F424B381E090E002C0880F991F76
:100310006A95E2F7822B84BB0895411126C024B36D
:1003200081E090E002C0880F991F6A95E2F78095FE
:10033000822384BB0895413059F421B381E090E0D9
:1003400002C0880F991F6A95E2F7822B81BB08953E
:1003500041110BC021B381E090E002C0880F991FCA
:100360006A95E2F78095822381BB0895813011F16F
:1003700030F08230D1F1833009F452C00895413019
:1003800059F42BB381E090E002C0880F991F6A9561
:10039000E2F7822B8BBB089541115CC02BB381E047
:1003A00090E002C0880F991F6A95E2F7809582233A
:1003B0008BBB0895413059F428B381E090E002C02E
:1003C000880F991F6A95E2F7822B88BB0895411127
:1003D00041C028B381E090E002C0880F991F6A9560
:1003E000E2F78095822388BB0895413059F425B304
:1003F00081E090E002C0880F991F6A95E2F7822B96
:1004000085BB0895411126C025B381E090E002C06C
:10041000880F991F6A95E2F78095822385BB08951E
:10042000413059F422B381E090E002C0880F991F57
:100430006A95E2F7822B82BB089541110BC022B36B
:1004400081E090E002C0880F991F6A95E2F78095DD
:10045000822382BB0895813079F028F08230A9F0A0
:100460008330E1F024C089B390E002C09595879570
:100470006A95E2F78170089586B390E002C0959581
:1004800087956A95E2F78170089583B390E002C082
:10049000959587956A95E2F78170089580B390E00D
:1004A00002C0959587956A95E2F78170089580E07E
:1004B0000895811156C087B3886087BB611127C03A
:1004C00040345105C1F038F44115510561F0483010
:1004D000510569F00895411581E0580781F04115F3
:1004E000544089F0089583B7896683BF089583B720
:1004F0008A6683BF089583B78B6683BF089583B7E9
:100500008C6683BF089583B78D6683BF089561307D
:1005100009F07EC040345105C1F038F44115510551
:1005200061F04830510569F00895411581E05807A0
:1005300081F04115544089F0089583B7896783BFDE
:10054000089583B78A6783BF089583B78B6783BF96
:10055000089583B78C6783BF089583B78D6783BF82
:100560000895813009F054C081B3806881BB611166
:1005700027C040345105C1F038F44115510561F0F0
:100580004830510569F00895411581E0580781F020
:100590004115544089F0089585B5896685BD089553
:1005A00085B58A6685BD089585B58B6685BD089538
:1005B00085B58C6685BD089585B58D6685BD089524
:1005C000613031F540345105C1F038F44115510521
:1005D00061F04830510569F00895411581E05807F0
:1005E00081F04115544089F0089585B5896785BD2E
:1005F000089585B58A6785BD089585B58B6785BDE6
:10060000089585B58C6785BD089585B58D6785BDD1
:100610000895282F3FEF639FC001112464E670E026
:100620000E941A03211102C06CBF0895213009F401
:1006300063BD089597FB072E16F4009407D077FD4D
:1006400009D00E942E0307FC05D03EF490958195B9
:100650009F4F0895709561957F4F0895AA1BBB1B0E
:1006600051E107C0AA1FBB1FA617B70710F0A61BB2
:10067000B70B881F991F5A95A9F780959095BC01D3
:08068000CD010895F894FFCFAD
:0A0688000002000301000000010061
:00000001FF
