S012000043617250726F6A6563742E7372656325
S11300000C942A000C9447000C9447000C9447006D
S11300100C9447000C9447000C9447000C94470040
S11300200C9447000C9447000C9447000C94470030
S11300300C9447000C9447000C9447000C94470020
S11300400C9447000C9447000C9447000C94470010
S11300500C94470011241FBECFE5D8E0DEBFCDBF0E
S113006010E0A0E6B0E0EEEEF7E002C005900D92DD
S1130070A037B107D9F720E0A0E7B0E001C01D9296
S1130080A337B207E1F70E94ED010C94F5030C9439
S11300900000409167005091680060916900709180
S11300A06A0080916B000E944B0140916200509164
S11300B063006091640070916500809166000E9405
S11300C04B0160E082E00E942B0161E082E00E942B
S11300D02B0162E082E00E942B0163E082E00E9437
S11300E02B010895CF93C82F282F4091670050917A
S11300F068006091690070916A0080916B000E94B1
S1130100A6012C2F4091620050916300609164001D
S113011070916500809166000E948001CF910895DE
S1130120CF93C82F282F40916700509168006091A9
S1130130690070916A0080916B000E9480012C2FED
S11301404091620050916300609164007091650079
S1130150809166000E94A601CF910895CF93C82F85
S1130160282F409167005091680060916900709158
S11301706A0080916B000E9480012C2F40916200E4
S113018050916300609164007091650080916600F5
S11301900E948001CF9108952EE140916700509113
S11301A068006091690070916A0080916B000E9400
S11301B0A6012EE1409162005091630060916400B9
S11301C070916500809166000E94A601089540E048
S11301D060E082E00E943E018130C9F4E091600059
S11301E0F09161008081883751F4ECE6F0E0F093FF
S11301F06100E09360008081809371000895809392
S113020071003196F0936100E0936000089540E03E
S113021061E082E00E943101813021F485E0809325
S11302207200089540E063E082E00E943101813071
S113023021F486E080937200089540E062E082E059
S11302400E943101813021F487E080937200089587
S1130250109272000895683018F440E00E94F4018E
S11302600895413021F40E94DE02982F05C00E94B7
S1130270DE0291E0811190E0892F08950E943101FE
S113028090917000891302C092E001C0982F80936E
S11302907000892F08951F93CF93DF9300D000D06F
S11302A01F92CDB7DEB749835A836B837C83182FA3
S11302B0811106C040E050E060E080E00E940C0341
S11302C0113031F440E050E060E081E00E940C0322
S11302D06A81683060F41C81183048F441E08981F7
S11302E00E94F40141E0612F8B810E94F4010F9080
S11302F00F900F900F900F90DF91CF911F91089561
S11303001F93CF93DF9300D000D01F92CDB7DEB7F9
S1130310942F6B837C838D83122F40E0652F892F6C
S11303200E94690241E06C818B810E94690215364A
S113033020F4612F8D810E94BC030F900F900F90C9
S11303400F900F90DF91CF911F9108951F93CF933A
S1130350DF9300D000D01F92CDB7DEB749835A8314
S1130360962F672F8D83122F40E0892F0E946902F8
S113037041E06A8189810E946902153620F4612F67
S11303808D810E94BC030F900F900F900F900F90DF
S1130390DF91CF911F91089580917200853061F4AF
S11303A080917100843618F40E94AE000895853659
S11303B098F00E94CC000895873021F48EE10E94C9
S11303C090000895863021F48EE10E947200089511
S11303D0811102C00E94AE0008950E9449000E944B
S11303E0E7000E94CC01FBCF813011F130F0823064
S11303F0D1F1833009F452C00895413059F42AB33D
S113040081E090E002C0880F991F6A95E2F7822B81
S11304108ABB089541115CC02AB381E090E002C018
S1130420880F991F6A95E2F7809582238ABB089505
S1130430413059F427B381E090E002C0880F991F3E
S11304406A95E2F7822B87BB0895411141C027B317
S113045081E090E002C0880F991F6A95E2F78095C9
S1130460822387BB0895413059F424B381E090E09E
S113047002C0880F991F6A95E2F7822B84BB089506
S1130480411126C024B381E090E002C0880F991F77
S11304906A95E2F78095822384BB0895413059F42C
S11304A021B381E090E002C0880F991F6A95E2F7BA
S11304B0822B81BB089541110BC021B381E090E0F0
S11304C002C0880F991F6A95E2F78095822381BB49
S11304D00895813011F130F08230D1F1833009F484
S11304E052C00895413059F42BB381E090E002C02A
S11304F0880F991F6A95E2F7822B8BBB08954111EF
S11305005CC02BB381E090E002C0880F991F6A950C
S1130510E2F7809582238BBB0895413059F428B3C8
S113052081E090E002C0880F991F6A95E2F7822B60
S113053088BB0895411141C028B381E090E002C016
S1130540880F991F6A95E2F78095822388BB0895E6
S1130550413059F425B381E090E002C0880F991F1F
S11305606A95E2F7822B85BB0895411126C025B315
S113057081E090E002C0880F991F6A95E2F78095A8
S1130580822385BB0895413059F422B381E090E081
S113059002C0880F991F6A95E2F7822B82BB0895E7
S11305A041110BC022B381E090E002C0880F991F73
S11305B06A95E2F78095822382BB0895813079F0B1
S11305C028F08230A9F08330E1F024C089B390E0B0
S11305D002C0959587956A95E2F78170089586B370
S11305E090E002C0959587956A95E2F78170089529
S11305F083B390E002C0959587956A95E2F7817080
S1130600089580B390E002C0959587956A95E2F7C6
S11306108170089580E00895811156C087B3886081
S113062087BB611127C040345105C1F038F441152E
S1130630510561F04830510569F00895411581E094
S1130640580781F04115544089F0089583B78966AD
S113065083BF089583B78A6683BF089583B78B6683
S113066083BF089583B78C6683BF089583B78D666F
S113067083BF0895613009F07EC040345105C1F054
S113068038F44115510561F04830510569F0089579
S1130690411581E0580781F04115544089F00895CF
S11306A083B7896783BF089583B78A6783BF089533
S11306B083B78B6783BF089583B78C6783BF08951F
S11306C083B78D6783BF0895813009F054C081B327
S11306D0806881BB611127C040345105C1F038F4F2
S11306E04115510561F04830510569F008954115EF
S11306F081E0580781F04115544089F0089585B58B
S1130700896685BD089585B58A6685BD089585B5D4
S11307108B6685BD089585B58C6685BD089585B5C0
S11307208D6685BD0895613031F540345105C1F0C1
S113073038F44115510561F04830510569F00895C8
S1130740411581E0580781F04115544089F008951E
S113075085B5896785BD089585B58A6785BD089582
S113076085B58B6785BD089585B58C6785BD08956E
S113077085B58D6785BD0895282F3FEF639FC00120
S1130780112464E670E00E94CD03211102C06CBF05
S11307900895213009F463BD089597FB072E16F4DC
S11307A0009407D077FD09D00E94E10307FC05D02F
S11307B03EF4909581959F4F0895709561957F4F74
S11307C00895AA1BBB1B51E107C0AA1FBB1FA61794
S11307D0B70710F0A61BB70B881F991F5A95A9F7E6
S11107E080959095BC01CD010895F894FFCF4B
S11307EE6C00000200030100000001001E3C5A7858
S9030000FC
