S012000043617250726F6A6563742E7372656325
S11300000C942A000C9447000C9447000C9447006D
S11300100C9447000C9447000C9447000C94470040
S11300200C9447000C9447000C9447000C94470030
S11300300C9447000C9447000C9447000C94470020
S11300400C9447000C9447000C9447000C94470010
S11300500C94470011241FBECFE5D8E0DEBFCDBF0E
S113006010E0A0E6B0E0E2E1F5E002C005900D92F8
S1130070A037B107D9F720E0A0E7B0E001C01D9296
S1130080A837B207E1F70E942F010C9487020C9461
S11300900000409167005091680060916900709180
S11300A06A0080916B000E94FA00409162005091B6
S11300B063006091640070916500809166000E9405
S11300C0FA0060E082E00E94B80061E082E00E94F1
S11300D0B80062E082E00E94B80063E082E00E941F
S11300E0B800089540E060E082E00E94E9008130B9
S11300F0D9F4E0916000F09161008081843051F482
S1130100ECE6F0E0F0936100E0936000808180937E
S113011076000895CF01019690936100809360006A
S1130120818180937600089540E061E082E00E943E
S1130130E900813021F485E080937700089540E060
S113014063E082E00E94E900813021F486E080933C
S11301507700089540E062E082E00E94E900813087
S113016021F487E080937700089510927700089532
S1130170683018F440E00E9434010895413019F4C5
S11301800E94A90106C00E94A90191E0811190E09A
S1130190892F9091750089130AC0209173003091C2
S11301A074002F5F3F4F30937400209373002091AD
S11301B0730030917400293C310530F010927400C2
S11301C01092730080937200809375008091720086
S11301D008950E94BE0090917100891719F08093D0
S11301E0700003C092E0909370008093710080913E
S11301F0700008951F93CF93DF9300D000D01F9217
S1130200CDB7DEB749835A836B837C83182F811162
S113021006C040E050E060E080E00E94D701113069
S113022031F440E050E060E081E00E94D7016A814F
S1130230683060F41C81183048F441E089810E94E0
S1130240340141E0612F8B810E9434010F900F90A3
S11302500F900F900F90DF91CF911F9108950E94FE
S113026049000E947200FDCF813011F130F08230DC
S1130270D1F1833009F452C00895413059F42AB3BE
S113028081E090E002C0880F991F6A95E2F7822B03
S11302908ABB089541115CC02AB381E090E002C09A
S11302A0880F991F6A95E2F7809582238ABB089587
S11302B0413059F427B381E090E002C0880F991FC0
S11302C06A95E2F7822B87BB0895411141C027B399
S11302D081E090E002C0880F991F6A95E2F780954B
S11302E0822387BB0895413059F424B381E090E020
S11302F002C0880F991F6A95E2F7822B84BB089588
S1130300411126C024B381E090E002C0880F991FF8
S11303106A95E2F78095822384BB0895413059F4AD
S113032021B381E090E002C0880F991F6A95E2F73B
S1130330822B81BB089541110BC021B381E090E071
S113034002C0880F991F6A95E2F78095822381BBCA
S11303500895813079F028F08230A9F08330E1F0FB
S113036024C089B390E002C0959587956A95E2F719
S11303708170089586B390E002C0959587956A953B
S1130380E2F78170089583B390E002C09595879554
S11303906A95E2F78170089580B390E002C0959564
S11303A087956A95E2F78170089580E00895811138
S11303B056C087B3886087BB611127C0403451059C
S11303C0C1F038F44115510561F04830510569F028
S11303D00895411581E0580781F04115544089F092
S11303E0089583B7896683BF089583B78A6683BFF8
S11303F0089583B78B6683BF089583B78C6683BFE4
S1130400089583B78D6683BF0895613009F07EC077
S113041040345105C1F038F44115510561F04830BC
S1130420510569F00895411581E0580781F041159F
S1130430544089F0089583B7896783BF089583B7CB
S11304408A6783BF089583B78B6783BF089583B793
S11304508C6783BF089583B78D6783BF0895813008
S113046009F054C081B3806881BB611127C0403456
S11304705105C1F038F44115510561F0483051057A
S113048069F00895411581E0580781F04115544001
S113049089F0089585B5896685BD089585B58A6610
S11304A085BD089585B58B6685BD089585B58C6633
S11304B085BD089585B58D6685BD0895613031F596
S11304C040345105C1F038F44115510561F048300C
S11304D0510569F00895411581E0580781F04115EF
S11304E0544089F0089585B5896785BD089585B51B
S11304F08A6785BD089585B58B6785BD089585B5E3
S11305008C6785BD089585B58D6785BD0895F8947C
S1050510FFCF17
S11305126C00000200030100000001000102030458
S9030000FC
